{
  "_format": "hh-sol-artifact-1",
  "contractName": "TwitterContract",
  "sourceName": "contracts/TwitterContract.sol",
  "abi": [
    {
      "inputs": [],
      "stateMutability": "nonpayable",
      "type": "constructor"
    },
    {
      "anonymous": false,
      "inputs": [
        {
          "indexed": false,
          "internalType": "uint256",
          "name": "id",
          "type": "uint256"
        },
        {
          "indexed": false,
          "internalType": "address",
          "name": "author",
          "type": "address"
        },
        {
          "indexed": false,
          "internalType": "string",
          "name": "content",
          "type": "string"
        },
        {
          "indexed": false,
          "internalType": "uint256",
          "name": "timestamp",
          "type": "uint256"
        }
      ],
      "name": "TweetCreated",
      "type": "event"
    },
    {
      "anonymous": false,
      "inputs": [
        {
          "indexed": false,
          "internalType": "address",
          "name": "liker",
          "type": "address"
        },
        {
          "indexed": false,
          "internalType": "address",
          "name": "tweetAuthor",
          "type": "address"
        },
        {
          "indexed": false,
          "internalType": "uint256",
          "name": "tweetId",
          "type": "uint256"
        },
        {
          "indexed": false,
          "internalType": "uint256",
          "name": "newLikeCount",
          "type": "uint256"
        }
      ],
      "name": "TweetLiked",
      "type": "event"
    },
    {
      "anonymous": false,
      "inputs": [
        {
          "indexed": false,
          "internalType": "address",
          "name": "unliker",
          "type": "address"
        },
        {
          "indexed": false,
          "internalType": "address",
          "name": "tweetAuthor",
          "type": "address"
        },
        {
          "indexed": false,
          "internalType": "uint256",
          "name": "tweetId",
          "type": "uint256"
        },
        {
          "indexed": false,
          "internalType": "uint256",
          "name": "newLikeCount",
          "type": "uint256"
        }
      ],
      "name": "TweetUnliked",
      "type": "event"
    },
    {
      "inputs": [],
      "name": "MAX_TWEET_LENGTH",
      "outputs": [
        {
          "internalType": "uint16",
          "name": "",
          "type": "uint16"
        }
      ],
      "stateMutability": "view",
      "type": "function"
    },
    {
      "inputs": [
        {
          "internalType": "uint16",
          "name": "newTweetLength",
          "type": "uint16"
        }
      ],
      "name": "changeTweetLength",
      "outputs": [],
      "stateMutability": "nonpayable",
      "type": "function"
    },
    {
      "inputs": [
        {
          "internalType": "string",
          "name": "_tweet",
          "type": "string"
        }
      ],
      "name": "createTweet",
      "outputs": [],
      "stateMutability": "nonpayable",
      "type": "function"
    },
    {
      "inputs": [],
      "name": "getAllTweets",
      "outputs": [
        {
          "components": [
            {
              "internalType": "uint256",
              "name": "id",
              "type": "uint256"
            },
            {
              "internalType": "address",
              "name": "author",
              "type": "address"
            },
            {
              "internalType": "string",
              "name": "content",
              "type": "string"
            },
            {
              "internalType": "uint256",
              "name": "timestamp",
              "type": "uint256"
            },
            {
              "internalType": "uint256",
              "name": "likes",
              "type": "uint256"
            },
            {
              "internalType": "bool",
              "name": "likedBySender",
              "type": "bool"
            }
          ],
          "internalType": "struct TwitterContract.PublicTweet[]",
          "name": "",
          "type": "tuple[]"
        }
      ],
      "stateMutability": "view",
      "type": "function"
    },
    {
      "inputs": [],
      "name": "getUserTweets",
      "outputs": [
        {
          "components": [
            {
              "internalType": "uint256",
              "name": "id",
              "type": "uint256"
            },
            {
              "internalType": "address",
              "name": "author",
              "type": "address"
            },
            {
              "internalType": "string",
              "name": "content",
              "type": "string"
            },
            {
              "internalType": "uint256",
              "name": "timestamp",
              "type": "uint256"
            },
            {
              "internalType": "uint256",
              "name": "likes",
              "type": "uint256"
            },
            {
              "internalType": "bool",
              "name": "likedBySender",
              "type": "bool"
            }
          ],
          "internalType": "struct TwitterContract.PublicTweet[]",
          "name": "",
          "type": "tuple[]"
        }
      ],
      "stateMutability": "view",
      "type": "function"
    },
    {
      "inputs": [],
      "name": "owner",
      "outputs": [
        {
          "internalType": "address",
          "name": "",
          "type": "address"
        }
      ],
      "stateMutability": "view",
      "type": "function"
    },
    {
      "inputs": [
        {
          "internalType": "address",
          "name": "author",
          "type": "address"
        },
        {
          "internalType": "uint256",
          "name": "id",
          "type": "uint256"
        }
      ],
      "name": "toggelLikeTweet",
      "outputs": [],
      "stateMutability": "nonpayable",
      "type": "function"
    },
    {
      "inputs": [
        {
          "internalType": "uint256",
          "name": "",
          "type": "uint256"
        }
      ],
      "name": "tweetAuthors",
      "outputs": [
        {
          "internalType": "address",
          "name": "",
          "type": "address"
        }
      ],
      "stateMutability": "view",
      "type": "function"
    },
    {
      "inputs": [
        {
          "internalType": "address",
          "name": "",
          "type": "address"
        },
        {
          "internalType": "uint256",
          "name": "",
          "type": "uint256"
        }
      ],
      "name": "tweets",
      "outputs": [
        {
          "internalType": "uint256",
          "name": "id",
          "type": "uint256"
        },
        {
          "internalType": "address",
          "name": "author",
          "type": "address"
        },
        {
          "internalType": "string",
          "name": "content",
          "type": "string"
        },
        {
          "internalType": "uint256",
          "name": "timestamp",
          "type": "uint256"
        },
        {
          "internalType": "uint256",
          "name": "likes",
          "type": "uint256"
        }
      ],
      "stateMutability": "view",
      "type": "function"
    }
  ],
  "bytecode": "0x608060405260c86000806101000a81548161ffff021916908361ffff16021790555034801561002d57600080fd5b5033600360006101000a81548173ffffffffffffffffffffffffffffffffffffffff021916908373ffffffffffffffffffffffffffffffffffffffff160217905550611c408061007e6000396000f3fe608060405234801561001057600080fd5b50600436106100935760003560e01c806358bfa4ab1161006657806358bfa4ab146101365780636eb1079714610152578063731903ff146101705780637c9cd2bc1461018e5780638da5cb5b146101aa57610093565b806305a1b4a914610098578063149d3ec9146100cc5780633e68ea86146100e85780635325613514610118575b600080fd5b6100b260048036038101906100ad919061101b565b6101c8565b6040516100c3959493929190611109565b60405180910390f35b6100e660048036038101906100e1919061101b565b6102c3565b005b61010260048036038101906100fd9190611163565b610573565b60405161010f9190611190565b60405180910390f35b6101206105b2565b60405161012d9190611379565b60405180910390f35b610150600480360381019061014b91906113d5565b61095f565b005b61015a610a0e565b6040516101679190611411565b60405180910390f35b610178610a20565b6040516101859190611379565b60405180910390f35b6101a860048036038101906101a39190611561565b610cb3565b005b6101b2610eff565b6040516101bf9190611190565b60405180910390f35b600160205281600052604060002081815481106101e457600080fd5b9060005260206000209060060201600091509150508060000154908060010160009054906101000a900473ffffffffffffffffffffffffffffffffffffffff1690806002018054610234906115d9565b80601f0160208091040260200160405190810160405280929190818152602001828054610260906115d9565b80156102ad5780601f10610282576101008083540402835291602001916102ad565b820191906000526020600020905b81548152906001019060200180831161029057829003601f168201915b5050505050908060030154908060040154905085565b80600160008473ffffffffffffffffffffffffffffffffffffffff1673ffffffffffffffffffffffffffffffffffffffff1681526020019081526020016000208054905011610347576040517f08c379a000000000000000000000000000000000000000000000000000000000815260040161033e90611656565b60405180910390fd5b6000600160008473ffffffffffffffffffffffffffffffffffffffff1673ffffffffffffffffffffffffffffffffffffffff168152602001908152602001600020828154811061039a57610399611676565b5b906000526020600020906006020190508060050160003373ffffffffffffffffffffffffffffffffffffffff1673ffffffffffffffffffffffffffffffffffffffff16815260200190815260200160002060009054906101000a900460ff16156104b857806004016000815480929190610413906116d4565b919050555060008160050160003373ffffffffffffffffffffffffffffffffffffffff1673ffffffffffffffffffffffffffffffffffffffff16815260200190815260200160002060006101000a81548160ff0219169083151502179055507f762c2616349603ac16eba0de8e6141b79129a07ab63bd99e0a80b3a47171694333848484600401546040516104ab94939291906116fd565b60405180910390a161056e565b8060040160008154809291906104cd90611742565b919050555060018160050160003373ffffffffffffffffffffffffffffffffffffffff1673ffffffffffffffffffffffffffffffffffffffff16815260200190815260200160002060006101000a81548160ff0219169083151502179055507fe8a76fc0f16d11a00d1e93b689b63d76cf60af914dd3d915375dc41d01a0c3c8338484846004015460405161056594939291906116fd565b60405180910390a15b505050565b6002818154811061058357600080fd5b906000526020600020016000915054906101000a900473ffffffffffffffffffffffffffffffffffffffff1681565b60606000805b6002805490508110156106605760016000600283815481106105dd576105dc611676565b5b9060005260206000200160009054906101000a900473ffffffffffffffffffffffffffffffffffffffff1673ffffffffffffffffffffffffffffffffffffffff1673ffffffffffffffffffffffffffffffffffffffff1681526020019081526020016000208054905082610651919061178a565b915080806001019150506105b8565b5060008167ffffffffffffffff81111561067d5761067c611436565b5b6040519080825280602002602001820160405280156106b657816020015b6106a3610f25565b81526020019060019003908161069b5790505b5090506000805b600280549050811015610955576000600282815481106106e0576106df611676565b5b9060005260206000200160009054906101000a900473ffffffffffffffffffffffffffffffffffffffff16905060005b600160008373ffffffffffffffffffffffffffffffffffffffff1673ffffffffffffffffffffffffffffffffffffffff16815260200190815260200160002080549050811015610946576000600160008473ffffffffffffffffffffffffffffffffffffffff1673ffffffffffffffffffffffffffffffffffffffff16815260200190815260200160002082815481106107ad576107ac611676565b5b906000526020600020906006020190506040518060c00160405280826000015481526020018260010160009054906101000a900473ffffffffffffffffffffffffffffffffffffffff1673ffffffffffffffffffffffffffffffffffffffff168152602001826002018054610821906115d9565b80601f016020809104026020016040519081016040528092919081815260200182805461084d906115d9565b801561089a5780601f1061086f5761010080835404028352916020019161089a565b820191906000526020600020905b81548152906001019060200180831161087d57829003601f168201915b5050505050815260200182600301548152602001826004015481526020018260050160003373ffffffffffffffffffffffffffffffffffffffff1673ffffffffffffffffffffffffffffffffffffffff16815260200190815260200160002060009054906101000a900460ff16151581525086868151811061091f5761091e611676565b5b6020026020010181905250848061093590611742565b955050508080600101915050610710565b505080806001019150506106bd565b5081935050505090565b600360009054906101000a900473ffffffffffffffffffffffffffffffffffffffff1673ffffffffffffffffffffffffffffffffffffffff163373ffffffffffffffffffffffffffffffffffffffff16146109ef576040517f08c379a00000000000000000000000000000000000000000000000000000000081526004016109e69061180a565b60405180910390fd5b806000806101000a81548161ffff021916908361ffff16021790555050565b60008054906101000a900461ffff1681565b60606000600160003373ffffffffffffffffffffffffffffffffffffffff1673ffffffffffffffffffffffffffffffffffffffff16815260200190815260200160002080549050905060008167ffffffffffffffff811115610a8557610a84611436565b5b604051908082528060200260200182016040528015610abe57816020015b610aab610f25565b815260200190600190039081610aa35790505b50905060005b82811015610caa576000600160003373ffffffffffffffffffffffffffffffffffffffff1673ffffffffffffffffffffffffffffffffffffffff1681526020019081526020016000208281548110610b1f57610b1e611676565b5b906000526020600020906006020190506040518060c00160405280826000015481526020018260010160009054906101000a900473ffffffffffffffffffffffffffffffffffffffff1673ffffffffffffffffffffffffffffffffffffffff168152602001826002018054610b93906115d9565b80601f0160208091040260200160405190810160405280929190818152602001828054610bbf906115d9565b8015610c0c5780601f10610be157610100808354040283529160200191610c0c565b820191906000526020600020905b815481529060010190602001808311610bef57829003601f168201915b5050505050815260200182600301548152602001826004015481526020018260050160003373ffffffffffffffffffffffffffffffffffffffff1673ffffffffffffffffffffffffffffffffffffffff16815260200190815260200160002060009054906101000a900460ff161515815250838381518110610c9157610c90611676565b5b6020026020010181905250508080600101915050610ac4565b50809250505090565b60008054906101000a900461ffff1661ffff1681511115610d09576040517f08c379a0000000000000000000000000000000000000000000000000000000008152600401610d009061189c565b60405180910390fd5b6000600160003373ffffffffffffffffffffffffffffffffffffffff1673ffffffffffffffffffffffffffffffffffffffff1681526020019081526020016000208054905090506000600160003373ffffffffffffffffffffffffffffffffffffffff1673ffffffffffffffffffffffffffffffffffffffff1681526020019081526020016000206001816001815401808255809150500390600052602060002090600602019050818160000181905550338160010160006101000a81548173ffffffffffffffffffffffffffffffffffffffff021916908373ffffffffffffffffffffffffffffffffffffffff16021790555082816002019081610e0e9190611a68565b504281600301819055506000816004018190555060008203610e8e576002339080600181540180825580915050600190039060005260206000200160009091909190916101000a81548173ffffffffffffffffffffffffffffffffffffffff021916908373ffffffffffffffffffffffffffffffffffffffff1602179055505b7f16fd3c13e9d46923e0a8bce11c7b473ec508a72e6c96cd2404b29ce972afc29e81600001548260010160009054906101000a900473ffffffffffffffffffffffffffffffffffffffff16836002018460030154604051610ef29493929190611bbe565b60405180910390a1505050565b600360009054906101000a900473ffffffffffffffffffffffffffffffffffffffff1681565b6040518060c0016040528060008152602001600073ffffffffffffffffffffffffffffffffffffffff1681526020016060815260200160008152602001600081526020016000151581525090565b6000604051905090565b600080fd5b600080fd5b600073ffffffffffffffffffffffffffffffffffffffff82169050919050565b6000610fb282610f87565b9050919050565b610fc281610fa7565b8114610fcd57600080fd5b50565b600081359050610fdf81610fb9565b92915050565b6000819050919050565b610ff881610fe5565b811461100357600080fd5b50565b60008135905061101581610fef565b92915050565b6000806040838503121561103257611031610f7d565b5b600061104085828601610fd0565b925050602061105185828601611006565b9150509250929050565b61106481610fe5565b82525050565b61107381610fa7565b82525050565b600081519050919050565b600082825260208201905092915050565b60005b838110156110b3578082015181840152602081019050611098565b60008484015250505050565b6000601f19601f8301169050919050565b60006110db82611079565b6110e58185611084565b93506110f5818560208601611095565b6110fe816110bf565b840191505092915050565b600060a08201905061111e600083018861105b565b61112b602083018761106a565b818103604083015261113d81866110d0565b905061114c606083018561105b565b611159608083018461105b565b9695505050505050565b60006020828403121561117957611178610f7d565b5b600061118784828501611006565b91505092915050565b60006020820190506111a5600083018461106a565b92915050565b600081519050919050565b600082825260208201905092915050565b6000819050602082019050919050565b6111e081610fe5565b82525050565b6111ef81610fa7565b82525050565b600082825260208201905092915050565b600061121182611079565b61121b81856111f5565b935061122b818560208601611095565b611234816110bf565b840191505092915050565b60008115159050919050565b6112548161123f565b82525050565b600060c08301600083015161127260008601826111d7565b50602083015161128560208601826111e6565b506040830151848203604086015261129d8282611206565b91505060608301516112b260608601826111d7565b5060808301516112c560808601826111d7565b5060a08301516112d860a086018261124b565b508091505092915050565b60006112ef838361125a565b905092915050565b6000602082019050919050565b600061130f826111ab565b61131981856111b6565b93508360208202850161132b856111c7565b8060005b85811015611367578484038952815161134885826112e3565b9450611353836112f7565b925060208a0199505060018101905061132f565b50829750879550505050505092915050565b600060208201905081810360008301526113938184611304565b905092915050565b600061ffff82169050919050565b6113b28161139b565b81146113bd57600080fd5b50565b6000813590506113cf816113a9565b92915050565b6000602082840312156113eb576113ea610f7d565b5b60006113f9848285016113c0565b91505092915050565b61140b8161139b565b82525050565b60006020820190506114266000830184611402565b92915050565b600080fd5b600080fd5b7f4e487b7100000000000000000000000000000000000000000000000000000000600052604160045260246000fd5b61146e826110bf565b810181811067ffffffffffffffff8211171561148d5761148c611436565b5b80604052505050565b60006114a0610f73565b90506114ac8282611465565b919050565b600067ffffffffffffffff8211156114cc576114cb611436565b5b6114d5826110bf565b9050602081019050919050565b82818337600083830152505050565b60006115046114ff846114b1565b611496565b9050828152602081018484840111156115205761151f611431565b5b61152b8482856114e2565b509392505050565b600082601f8301126115485761154761142c565b5b81356115588482602086016114f1565b91505092915050565b60006020828403121561157757611576610f7d565b5b600082013567ffffffffffffffff81111561159557611594610f82565b5b6115a184828501611533565b91505092915050565b7f4e487b7100000000000000000000000000000000000000000000000000000000600052602260045260246000fd5b600060028204905060018216806115f157607f821691505b602082108103611604576116036115aa565b5b50919050565b7f545745455420444f4553204e4f54204558495354000000000000000000000000600082015250565b6000611640601483611084565b915061164b8261160a565b602082019050919050565b6000602082019050818103600083015261166f81611633565b9050919050565b7f4e487b7100000000000000000000000000000000000000000000000000000000600052603260045260246000fd5b7f4e487b7100000000000000000000000000000000000000000000000000000000600052601160045260246000fd5b60006116df82610fe5565b9150600082036116f2576116f16116a5565b5b600182039050919050565b6000608082019050611712600083018761106a565b61171f602083018661106a565b61172c604083018561105b565b611739606083018461105b565b95945050505050565b600061174d82610fe5565b91507fffffffffffffffffffffffffffffffffffffffffffffffffffffffffffffffff820361177f5761177e6116a5565b5b600182019050919050565b600061179582610fe5565b91506117a083610fe5565b92508282019050808211156117b8576117b76116a5565b5b92915050565b7f594f5520415245204e4f54204f574e4552000000000000000000000000000000600082015250565b60006117f4601183611084565b91506117ff826117be565b602082019050919050565b60006020820190508181036000830152611823816117e7565b9050919050565b7f4d4158205457454554204c454e475448204953204e4f54204d4f52452054484160008201527f4e20323030204348415241435445525300000000000000000000000000000000602082015250565b6000611886603083611084565b91506118918261182a565b604082019050919050565b600060208201905081810360008301526118b581611879565b9050919050565b60008190508160005260206000209050919050565b60006020601f8301049050919050565b600082821b905092915050565b60006008830261191e7fffffffffffffffffffffffffffffffffffffffffffffffffffffffffffffffff826118e1565b61192886836118e1565b95508019841693508086168417925050509392505050565b6000819050919050565b600061196561196061195b84610fe5565b611940565b610fe5565b9050919050565b6000819050919050565b61197f8361194a565b61199361198b8261196c565b8484546118ee565b825550505050565b600090565b6119a861199b565b6119b3818484611976565b505050565b5b818110156119d7576119cc6000826119a0565b6001810190506119b9565b5050565b601f821115611a1c576119ed816118bc565b6119f6846118d1565b81016020851015611a05578190505b611a19611a11856118d1565b8301826119b8565b50505b505050565b600082821c905092915050565b6000611a3f60001984600802611a21565b1980831691505092915050565b6000611a588383611a2e565b9150826002028217905092915050565b611a7182611079565b67ffffffffffffffff811115611a8a57611a89611436565b5b611a9482546115d9565b611a9f8282856119db565b600060209050601f831160018114611ad25760008415611ac0578287015190505b611aca8582611a4c565b865550611b32565b601f198416611ae0866118bc565b60005b82811015611b0857848901518255600182019150602085019450602081019050611ae3565b86831015611b255784890151611b21601f891682611a2e565b8355505b6001600288020188555050505b505050505050565b60008154611b47816115d9565b611b518186611084565b94506001821660008114611b6c5760018114611b8257611bb5565b60ff198316865281151560200286019350611bb5565b611b8b856118bc565b60005b83811015611bad57815481890152600182019150602081019050611b8e565b808801955050505b50505092915050565b6000608082019050611bd3600083018761105b565b611be0602083018661106a565b8181036040830152611bf28185611b3a565b9050611c01606083018461105b565b9594505050505056fea2646970667358221220b105a7b28e43314dd24e51028538fb5fc8cbe0aa31af20ed27a22da251852fd664736f6c63430008180033",
  "linkReferences": {},
  "deployedLinkReferences": {}
}