{
  "_format": "hh-sol-artifact-1",
  "contractName": "TwitterContract",
  "sourceName": "contracts/TwitterContract.sol",
  "abi": [
    {
      "inputs": [],
      "stateMutability": "nonpayable",
      "type": "constructor"
    },
    {
      "anonymous": false,
      "inputs": [
        {
          "indexed": false,
          "internalType": "uint256",
          "name": "id",
          "type": "uint256"
        },
        {
          "indexed": false,
          "internalType": "address",
          "name": "author",
          "type": "address"
        },
        {
          "indexed": false,
          "internalType": "string",
          "name": "content",
          "type": "string"
        },
        {
          "indexed": false,
          "internalType": "uint256",
          "name": "timestamp",
          "type": "uint256"
        }
      ],
      "name": "TweetCreated",
      "type": "event"
    },
    {
      "anonymous": false,
      "inputs": [
        {
          "indexed": false,
          "internalType": "address",
          "name": "liker",
          "type": "address"
        },
        {
          "indexed": false,
          "internalType": "address",
          "name": "tweetAuthor",
          "type": "address"
        },
        {
          "indexed": false,
          "internalType": "uint256",
          "name": "tweetId",
          "type": "uint256"
        },
        {
          "indexed": false,
          "internalType": "uint256",
          "name": "newLikeCount",
          "type": "uint256"
        }
      ],
      "name": "TweetLiked",
      "type": "event"
    },
    {
      "anonymous": false,
      "inputs": [
        {
          "indexed": false,
          "internalType": "address",
          "name": "unliker",
          "type": "address"
        },
        {
          "indexed": false,
          "internalType": "address",
          "name": "tweetAuthor",
          "type": "address"
        },
        {
          "indexed": false,
          "internalType": "uint256",
          "name": "tweetId",
          "type": "uint256"
        },
        {
          "indexed": false,
          "internalType": "uint256",
          "name": "newLikeCount",
          "type": "uint256"
        }
      ],
      "name": "TweetUnliked",
      "type": "event"
    },
    {
      "inputs": [],
      "name": "MAX_TWEET_LENGTH",
      "outputs": [
        {
          "internalType": "uint16",
          "name": "",
          "type": "uint16"
        }
      ],
      "stateMutability": "view",
      "type": "function"
    },
    {
      "inputs": [
        {
          "internalType": "uint16",
          "name": "newTweetLength",
          "type": "uint16"
        }
      ],
      "name": "changeTweetLength",
      "outputs": [],
      "stateMutability": "nonpayable",
      "type": "function"
    },
    {
      "inputs": [
        {
          "internalType": "string",
          "name": "_tweet",
          "type": "string"
        }
      ],
      "name": "createTweet",
      "outputs": [],
      "stateMutability": "nonpayable",
      "type": "function"
    },
    {
      "inputs": [],
      "name": "getAllTweets",
      "outputs": [
        {
          "components": [
            {
              "internalType": "uint256",
              "name": "id",
              "type": "uint256"
            },
            {
              "internalType": "address",
              "name": "author",
              "type": "address"
            },
            {
              "internalType": "string",
              "name": "content",
              "type": "string"
            },
            {
              "internalType": "uint256",
              "name": "timestamp",
              "type": "uint256"
            },
            {
              "internalType": "uint256",
              "name": "likes",
              "type": "uint256"
            }
          ],
          "internalType": "struct TwitterContract.Tweet[]",
          "name": "",
          "type": "tuple[]"
        }
      ],
      "stateMutability": "view",
      "type": "function"
    },
    {
      "inputs": [
        {
          "internalType": "uint256",
          "name": "_i",
          "type": "uint256"
        }
      ],
      "name": "getTweet",
      "outputs": [
        {
          "components": [
            {
              "internalType": "uint256",
              "name": "id",
              "type": "uint256"
            },
            {
              "internalType": "address",
              "name": "author",
              "type": "address"
            },
            {
              "internalType": "string",
              "name": "content",
              "type": "string"
            },
            {
              "internalType": "uint256",
              "name": "timestamp",
              "type": "uint256"
            },
            {
              "internalType": "uint256",
              "name": "likes",
              "type": "uint256"
            }
          ],
          "internalType": "struct TwitterContract.Tweet",
          "name": "",
          "type": "tuple"
        }
      ],
      "stateMutability": "view",
      "type": "function"
    },
    {
      "inputs": [
        {
          "internalType": "address",
          "name": "author",
          "type": "address"
        },
        {
          "internalType": "uint256",
          "name": "id",
          "type": "uint256"
        }
      ],
      "name": "likeTweet",
      "outputs": [],
      "stateMutability": "nonpayable",
      "type": "function"
    },
    {
      "inputs": [],
      "name": "owner",
      "outputs": [
        {
          "internalType": "address",
          "name": "",
          "type": "address"
        }
      ],
      "stateMutability": "view",
      "type": "function"
    },
    {
      "inputs": [
        {
          "internalType": "address",
          "name": "",
          "type": "address"
        },
        {
          "internalType": "uint256",
          "name": "",
          "type": "uint256"
        }
      ],
      "name": "tweets",
      "outputs": [
        {
          "internalType": "uint256",
          "name": "id",
          "type": "uint256"
        },
        {
          "internalType": "address",
          "name": "author",
          "type": "address"
        },
        {
          "internalType": "string",
          "name": "content",
          "type": "string"
        },
        {
          "internalType": "uint256",
          "name": "timestamp",
          "type": "uint256"
        },
        {
          "internalType": "uint256",
          "name": "likes",
          "type": "uint256"
        }
      ],
      "stateMutability": "view",
      "type": "function"
    },
    {
      "inputs": [
        {
          "internalType": "address",
          "name": "author",
          "type": "address"
        },
        {
          "internalType": "uint256",
          "name": "id",
          "type": "uint256"
        }
      ],
      "name": "unlikeTweet",
      "outputs": [],
      "stateMutability": "nonpayable",
      "type": "function"
    }
  ],
  "bytecode": "0x608060405260c86000806101000a81548161ffff021916908361ffff16021790555034801561002d57600080fd5b5033600260006101000a81548173ffffffffffffffffffffffffffffffffffffffff021916908373ffffffffffffffffffffffffffffffffffffffff160217905550611a2d8061007e6000396000f3fe608060405234801561001057600080fd5b50600436106100935760003560e01c8063633782161161006657806363378216146101225780636eb107971461013e5780637c9cd2bc1461015c5780638da5cb5b14610178578063c3ad5ecb1461019657610093565b806305a1b4a9146100985780633d9b569f146100cc57806353256135146100e857806358bfa4ab14610106575b600080fd5b6100b260048036038101906100ad9190610dea565b6101c6565b6040516100c3959493929190610ed8565b60405180910390f35b6100e660048036038101906100e19190610dea565b6102c1565b005b6100f0610525565b6040516100fd91906110d2565b60405180910390f35b610120600480360381019061011b919061112e565b6106c7565b005b61013c60048036038101906101379190610dea565b610776565b005b610146610935565b604051610153919061116a565b60405180910390f35b610176600480360381019061017191906112ba565b610947565b005b610180610b58565b60405161018d9190611303565b60405180910390f35b6101b060048036038101906101ab919061131e565b610b7e565b6040516101bd91906113c1565b60405180910390f35b600160205281600052604060002081815481106101e257600080fd5b9060005260206000209060050201600091509150508060000154908060010160009054906101000a900473ffffffffffffffffffffffffffffffffffffffff169080600201805461023290611412565b80601f016020809104026020016040519081016040528092919081815260200182805461025e90611412565b80156102ab5780601f10610280576101008083540402835291602001916102ab565b820191906000526020600020905b81548152906001019060200180831161028e57829003601f168201915b5050505050908060030154908060040154905085565b80600160008473ffffffffffffffffffffffffffffffffffffffff1673ffffffffffffffffffffffffffffffffffffffff168152602001908152602001600020828154811061031357610312611443565b5b90600052602060002090600502016000015414610365576040517f08c379a000000000000000000000000000000000000000000000000000000000815260040161035c906114be565b60405180910390fd5b6000600160008473ffffffffffffffffffffffffffffffffffffffff1673ffffffffffffffffffffffffffffffffffffffff16815260200190815260200160002082815481106103b8576103b7611443565b5b9060005260206000209060050201600401541161040a576040517f08c379a00000000000000000000000000000000000000000000000000000000081526004016104019061152a565b60405180910390fd5b600160008373ffffffffffffffffffffffffffffffffffffffff1673ffffffffffffffffffffffffffffffffffffffff168152602001908152602001600020818154811061045b5761045a611443565b5b9060005260206000209060050201600401600081548092919061047d90611579565b91905055507f762c2616349603ac16eba0de8e6141b79129a07ab63bd99e0a80b3a471716943338383600160008773ffffffffffffffffffffffffffffffffffffffff1673ffffffffffffffffffffffffffffffffffffffff16815260200190815260200160002085815481106104f7576104f6611443565b5b90600052602060002090600502016004015460405161051994939291906115a2565b60405180910390a15050565b6060600160003373ffffffffffffffffffffffffffffffffffffffff1673ffffffffffffffffffffffffffffffffffffffff168152602001908152602001600020805480602002602001604051908101604052809291908181526020016000905b828210156106be57838290600052602060002090600502016040518060a0016040529081600082015481526020016001820160009054906101000a900473ffffffffffffffffffffffffffffffffffffffff1673ffffffffffffffffffffffffffffffffffffffff1673ffffffffffffffffffffffffffffffffffffffff16815260200160028201805461061990611412565b80601f016020809104026020016040519081016040528092919081815260200182805461064590611412565b80156106925780601f1061066757610100808354040283529160200191610692565b820191906000526020600020905b81548152906001019060200180831161067557829003601f168201915b505050505081526020016003820154815260200160048201548152505081526020019060010190610586565b50505050905090565b600260009054906101000a900473ffffffffffffffffffffffffffffffffffffffff1673ffffffffffffffffffffffffffffffffffffffff163373ffffffffffffffffffffffffffffffffffffffff1614610757576040517f08c379a000000000000000000000000000000000000000000000000000000000815260040161074e90611633565b60405180910390fd5b806000806101000a81548161ffff021916908361ffff16021790555050565b80600160008473ffffffffffffffffffffffffffffffffffffffff1673ffffffffffffffffffffffffffffffffffffffff16815260200190815260200160002082815481106107c8576107c7611443565b5b9060005260206000209060050201600001541461081a576040517f08c379a0000000000000000000000000000000000000000000000000000000008152600401610811906114be565b60405180910390fd5b600160008373ffffffffffffffffffffffffffffffffffffffff1673ffffffffffffffffffffffffffffffffffffffff168152602001908152602001600020818154811061086b5761086a611443565b5b9060005260206000209060050201600401600081548092919061088d90611653565b91905055507fe8a76fc0f16d11a00d1e93b689b63d76cf60af914dd3d915375dc41d01a0c3c8338383600160008773ffffffffffffffffffffffffffffffffffffffff1673ffffffffffffffffffffffffffffffffffffffff168152602001908152602001600020858154811061090757610906611443565b5b90600052602060002090600502016004015460405161092994939291906115a2565b60405180910390a15050565b60008054906101000a900461ffff1681565b60008054906101000a900461ffff1661ffff168151111561099d576040517f08c379a00000000000000000000000000000000000000000000000000000000081526004016109949061170d565b60405180910390fd5b60006040518060a00160405280600160003373ffffffffffffffffffffffffffffffffffffffff1673ffffffffffffffffffffffffffffffffffffffff1681526020019081526020016000208054905081526020013373ffffffffffffffffffffffffffffffffffffffff16815260200183815260200142815260200160008152509050600160003373ffffffffffffffffffffffffffffffffffffffff1673ffffffffffffffffffffffffffffffffffffffff1681526020019081526020016000208190806001815401808255809150506001900390600052602060002090600502016000909190919091506000820151816000015560208201518160010160006101000a81548173ffffffffffffffffffffffffffffffffffffffff021916908373ffffffffffffffffffffffffffffffffffffffff1602179055506040820151816002019081610af091906118d9565b50606082015181600301556080820151816004015550507f16fd3c13e9d46923e0a8bce11c7b473ec508a72e6c96cd2404b29ce972afc29e8160000151826020015183604001518460600151604051610b4c94939291906119ab565b60405180910390a15050565b600260009054906101000a900473ffffffffffffffffffffffffffffffffffffffff1681565b610b86610cfd565b600160003373ffffffffffffffffffffffffffffffffffffffff1673ffffffffffffffffffffffffffffffffffffffff1681526020019081526020016000208281548110610bd757610bd6611443565b5b90600052602060002090600502016040518060a0016040529081600082015481526020016001820160009054906101000a900473ffffffffffffffffffffffffffffffffffffffff1673ffffffffffffffffffffffffffffffffffffffff1673ffffffffffffffffffffffffffffffffffffffff168152602001600282018054610c6090611412565b80601f0160208091040260200160405190810160405280929190818152602001828054610c8c90611412565b8015610cd95780601f10610cae57610100808354040283529160200191610cd9565b820191906000526020600020905b815481529060010190602001808311610cbc57829003601f168201915b50505050508152602001600382015481526020016004820154815250509050919050565b6040518060a0016040528060008152602001600073ffffffffffffffffffffffffffffffffffffffff1681526020016060815260200160008152602001600081525090565b6000604051905090565b600080fd5b600080fd5b600073ffffffffffffffffffffffffffffffffffffffff82169050919050565b6000610d8182610d56565b9050919050565b610d9181610d76565b8114610d9c57600080fd5b50565b600081359050610dae81610d88565b92915050565b6000819050919050565b610dc781610db4565b8114610dd257600080fd5b50565b600081359050610de481610dbe565b92915050565b60008060408385031215610e0157610e00610d4c565b5b6000610e0f85828601610d9f565b9250506020610e2085828601610dd5565b9150509250929050565b610e3381610db4565b82525050565b610e4281610d76565b82525050565b600081519050919050565b600082825260208201905092915050565b60005b83811015610e82578082015181840152602081019050610e67565b60008484015250505050565b6000601f19601f8301169050919050565b6000610eaa82610e48565b610eb48185610e53565b9350610ec4818560208601610e64565b610ecd81610e8e565b840191505092915050565b600060a082019050610eed6000830188610e2a565b610efa6020830187610e39565b8181036040830152610f0c8186610e9f565b9050610f1b6060830185610e2a565b610f286080830184610e2a565b9695505050505050565b600081519050919050565b600082825260208201905092915050565b6000819050602082019050919050565b610f6781610db4565b82525050565b610f7681610d76565b82525050565b600082825260208201905092915050565b6000610f9882610e48565b610fa28185610f7c565b9350610fb2818560208601610e64565b610fbb81610e8e565b840191505092915050565b600060a083016000830151610fde6000860182610f5e565b506020830151610ff16020860182610f6d565b50604083015184820360408601526110098282610f8d565b915050606083015161101e6060860182610f5e565b5060808301516110316080860182610f5e565b508091505092915050565b60006110488383610fc6565b905092915050565b6000602082019050919050565b600061106882610f32565b6110728185610f3d565b93508360208202850161108485610f4e565b8060005b858110156110c057848403895281516110a1858261103c565b94506110ac83611050565b925060208a01995050600181019050611088565b50829750879550505050505092915050565b600060208201905081810360008301526110ec818461105d565b905092915050565b600061ffff82169050919050565b61110b816110f4565b811461111657600080fd5b50565b60008135905061112881611102565b92915050565b60006020828403121561114457611143610d4c565b5b600061115284828501611119565b91505092915050565b611164816110f4565b82525050565b600060208201905061117f600083018461115b565b92915050565b600080fd5b600080fd5b7f4e487b7100000000000000000000000000000000000000000000000000000000600052604160045260246000fd5b6111c782610e8e565b810181811067ffffffffffffffff821117156111e6576111e561118f565b5b80604052505050565b60006111f9610d42565b905061120582826111be565b919050565b600067ffffffffffffffff8211156112255761122461118f565b5b61122e82610e8e565b9050602081019050919050565b82818337600083830152505050565b600061125d6112588461120a565b6111ef565b9050828152602081018484840111156112795761127861118a565b5b61128484828561123b565b509392505050565b600082601f8301126112a1576112a0611185565b5b81356112b184826020860161124a565b91505092915050565b6000602082840312156112d0576112cf610d4c565b5b600082013567ffffffffffffffff8111156112ee576112ed610d51565b5b6112fa8482850161128c565b91505092915050565b60006020820190506113186000830184610e39565b92915050565b60006020828403121561133457611333610d4c565b5b600061134284828501610dd5565b91505092915050565b600060a0830160008301516113636000860182610f5e565b5060208301516113766020860182610f6d565b506040830151848203604086015261138e8282610f8d565b91505060608301516113a36060860182610f5e565b5060808301516113b66080860182610f5e565b508091505092915050565b600060208201905081810360008301526113db818461134b565b905092915050565b7f4e487b7100000000000000000000000000000000000000000000000000000000600052602260045260246000fd5b6000600282049050600182168061142a57607f821691505b60208210810361143d5761143c6113e3565b5b50919050565b7f4e487b7100000000000000000000000000000000000000000000000000000000600052603260045260246000fd5b7f545745455420444f4553204e4f54204558495354530000000000000000000000600082015250565b60006114a8601583610e53565b91506114b382611472565b602082019050919050565b600060208201905081810360008301526114d78161149b565b9050919050565b7f545745455420484153204e4f204c494b45530000000000000000000000000000600082015250565b6000611514601283610e53565b915061151f826114de565b602082019050919050565b6000602082019050818103600083015261154381611507565b9050919050565b7f4e487b7100000000000000000000000000000000000000000000000000000000600052601160045260246000fd5b600061158482610db4565b9150600082036115975761159661154a565b5b600182039050919050565b60006080820190506115b76000830187610e39565b6115c46020830186610e39565b6115d16040830185610e2a565b6115de6060830184610e2a565b95945050505050565b7f594f5520415245204e4f54204f574e4552000000000000000000000000000000600082015250565b600061161d601183610e53565b9150611628826115e7565b602082019050919050565b6000602082019050818103600083015261164c81611610565b9050919050565b600061165e82610db4565b91507fffffffffffffffffffffffffffffffffffffffffffffffffffffffffffffffff82036116905761168f61154a565b5b600182019050919050565b7f4d4158205457454554204c454e475448204953204e4f54204d4f52452054484160008201527f4e20313020434841524143544552000000000000000000000000000000000000602082015250565b60006116f7602e83610e53565b91506117028261169b565b604082019050919050565b60006020820190508181036000830152611726816116ea565b9050919050565b60008190508160005260206000209050919050565b60006020601f8301049050919050565b600082821b905092915050565b60006008830261178f7fffffffffffffffffffffffffffffffffffffffffffffffffffffffffffffffff82611752565b6117998683611752565b95508019841693508086168417925050509392505050565b6000819050919050565b60006117d66117d16117cc84610db4565b6117b1565b610db4565b9050919050565b6000819050919050565b6117f0836117bb565b6118046117fc826117dd565b84845461175f565b825550505050565b600090565b61181961180c565b6118248184846117e7565b505050565b5b818110156118485761183d600082611811565b60018101905061182a565b5050565b601f82111561188d5761185e8161172d565b61186784611742565b81016020851015611876578190505b61188a61188285611742565b830182611829565b50505b505050565b600082821c905092915050565b60006118b060001984600802611892565b1980831691505092915050565b60006118c9838361189f565b9150826002028217905092915050565b6118e282610e48565b67ffffffffffffffff8111156118fb576118fa61118f565b5b6119058254611412565b61191082828561184c565b600060209050601f8311600181146119435760008415611931578287015190505b61193b85826118bd565b8655506119a3565b601f1984166119518661172d565b60005b8281101561197957848901518255600182019150602085019450602081019050611954565b868310156119965784890151611992601f89168261189f565b8355505b6001600288020188555050505b505050505050565b60006080820190506119c06000830187610e2a565b6119cd6020830186610e39565b81810360408301526119df8185610e9f565b90506119ee6060830184610e2a565b9594505050505056fea2646970667358221220078a9f453d26784111da33600faf87cb985c00dc59b595d7f7257a11b3da810064736f6c63430008180033",
  "linkReferences": {},
  "deployedLinkReferences": {}
}