{
  "_format": "hh-sol-artifact-1",
  "contractName": "TwitterContract",
  "sourceName": "contracts/TwitterContract.sol",
  "abi": [
    {
      "inputs": [],
      "stateMutability": "nonpayable",
      "type": "constructor"
    },
    {
      "anonymous": false,
      "inputs": [
        {
          "indexed": false,
          "internalType": "uint256",
          "name": "id",
          "type": "uint256"
        },
        {
          "indexed": false,
          "internalType": "address",
          "name": "author",
          "type": "address"
        },
        {
          "indexed": false,
          "internalType": "string",
          "name": "content",
          "type": "string"
        },
        {
          "indexed": false,
          "internalType": "uint256",
          "name": "timestamp",
          "type": "uint256"
        }
      ],
      "name": "TweetCreated",
      "type": "event"
    },
    {
      "anonymous": false,
      "inputs": [
        {
          "indexed": false,
          "internalType": "address",
          "name": "liker",
          "type": "address"
        },
        {
          "indexed": false,
          "internalType": "address",
          "name": "tweetAuthor",
          "type": "address"
        },
        {
          "indexed": false,
          "internalType": "uint256",
          "name": "tweetId",
          "type": "uint256"
        },
        {
          "indexed": false,
          "internalType": "uint256",
          "name": "newLikeCount",
          "type": "uint256"
        }
      ],
      "name": "TweetLiked",
      "type": "event"
    },
    {
      "anonymous": false,
      "inputs": [
        {
          "indexed": false,
          "internalType": "address",
          "name": "retweeter",
          "type": "address"
        },
        {
          "indexed": false,
          "internalType": "address",
          "name": "tweetAuthor",
          "type": "address"
        },
        {
          "indexed": false,
          "internalType": "uint256",
          "name": "tweetId",
          "type": "uint256"
        },
        {
          "indexed": false,
          "internalType": "uint256",
          "name": "newRetweetCount",
          "type": "uint256"
        }
      ],
      "name": "TweetRetweet",
      "type": "event"
    },
    {
      "anonymous": false,
      "inputs": [
        {
          "indexed": false,
          "internalType": "address",
          "name": "unliker",
          "type": "address"
        },
        {
          "indexed": false,
          "internalType": "address",
          "name": "tweetAuthor",
          "type": "address"
        },
        {
          "indexed": false,
          "internalType": "uint256",
          "name": "tweetId",
          "type": "uint256"
        },
        {
          "indexed": false,
          "internalType": "uint256",
          "name": "newLikeCount",
          "type": "uint256"
        }
      ],
      "name": "TweetUnliked",
      "type": "event"
    },
    {
      "inputs": [],
      "name": "MAX_TWEET_LENGTH",
      "outputs": [
        {
          "internalType": "uint16",
          "name": "",
          "type": "uint16"
        }
      ],
      "stateMutability": "view",
      "type": "function"
    },
    {
      "inputs": [
        {
          "internalType": "uint16",
          "name": "newTweetLength",
          "type": "uint16"
        }
      ],
      "name": "changeTweetLength",
      "outputs": [],
      "stateMutability": "nonpayable",
      "type": "function"
    },
    {
      "inputs": [
        {
          "internalType": "string",
          "name": "_tweet",
          "type": "string"
        }
      ],
      "name": "createTweet",
      "outputs": [],
      "stateMutability": "nonpayable",
      "type": "function"
    },
    {
      "inputs": [],
      "name": "getAllTweets",
      "outputs": [
        {
          "components": [
            {
              "internalType": "uint256",
              "name": "id",
              "type": "uint256"
            },
            {
              "internalType": "address",
              "name": "author",
              "type": "address"
            },
            {
              "internalType": "string",
              "name": "content",
              "type": "string"
            },
            {
              "internalType": "uint256",
              "name": "timestamp",
              "type": "uint256"
            },
            {
              "internalType": "uint256",
              "name": "likes",
              "type": "uint256"
            },
            {
              "internalType": "bool",
              "name": "likedBySender",
              "type": "bool"
            },
            {
              "internalType": "uint256",
              "name": "retweets",
              "type": "uint256"
            }
          ],
          "internalType": "struct TwitterContract.PublicTweet[]",
          "name": "",
          "type": "tuple[]"
        }
      ],
      "stateMutability": "view",
      "type": "function"
    },
    {
      "inputs": [],
      "name": "getUserTweets",
      "outputs": [
        {
          "components": [
            {
              "internalType": "uint256",
              "name": "id",
              "type": "uint256"
            },
            {
              "internalType": "address",
              "name": "author",
              "type": "address"
            },
            {
              "internalType": "string",
              "name": "content",
              "type": "string"
            },
            {
              "internalType": "uint256",
              "name": "timestamp",
              "type": "uint256"
            },
            {
              "internalType": "uint256",
              "name": "likes",
              "type": "uint256"
            },
            {
              "internalType": "bool",
              "name": "likedBySender",
              "type": "bool"
            },
            {
              "internalType": "uint256",
              "name": "retweets",
              "type": "uint256"
            }
          ],
          "internalType": "struct TwitterContract.PublicTweet[]",
          "name": "",
          "type": "tuple[]"
        }
      ],
      "stateMutability": "view",
      "type": "function"
    },
    {
      "inputs": [],
      "name": "owner",
      "outputs": [
        {
          "internalType": "address",
          "name": "",
          "type": "address"
        }
      ],
      "stateMutability": "view",
      "type": "function"
    },
    {
      "inputs": [
        {
          "internalType": "address",
          "name": "author",
          "type": "address"
        },
        {
          "internalType": "uint256",
          "name": "id",
          "type": "uint256"
        }
      ],
      "name": "retweet",
      "outputs": [],
      "stateMutability": "nonpayable",
      "type": "function"
    },
    {
      "inputs": [
        {
          "internalType": "address",
          "name": "author",
          "type": "address"
        },
        {
          "internalType": "uint256",
          "name": "id",
          "type": "uint256"
        }
      ],
      "name": "toggelLikeTweet",
      "outputs": [],
      "stateMutability": "nonpayable",
      "type": "function"
    },
    {
      "inputs": [
        {
          "internalType": "uint256",
          "name": "",
          "type": "uint256"
        }
      ],
      "name": "tweetAuthors",
      "outputs": [
        {
          "internalType": "address",
          "name": "",
          "type": "address"
        }
      ],
      "stateMutability": "view",
      "type": "function"
    },
    {
      "inputs": [
        {
          "internalType": "address",
          "name": "",
          "type": "address"
        },
        {
          "internalType": "uint256",
          "name": "",
          "type": "uint256"
        }
      ],
      "name": "tweets",
      "outputs": [
        {
          "internalType": "uint256",
          "name": "id",
          "type": "uint256"
        },
        {
          "internalType": "address",
          "name": "author",
          "type": "address"
        },
        {
          "internalType": "string",
          "name": "content",
          "type": "string"
        },
        {
          "internalType": "uint256",
          "name": "timestamp",
          "type": "uint256"
        },
        {
          "internalType": "uint256",
          "name": "likes",
          "type": "uint256"
        },
        {
          "internalType": "uint256",
          "name": "retweets",
          "type": "uint256"
        }
      ],
      "stateMutability": "view",
      "type": "function"
    }
  ],
  "bytecode": "0x608060405260c86000806101000a81548161ffff021916908361ffff16021790555034801561002d57600080fd5b5033600360006101000a81548173ffffffffffffffffffffffffffffffffffffffff021916908373ffffffffffffffffffffffffffffffffffffffff160217905550611db08061007e6000396000f3fe608060405234801561001057600080fd5b506004361061009e5760003560e01c80636eb10797116100665780636eb107971461015e578063731903ff1461017c5780637c9cd2bc1461019a5780638da5cb5b146101b6578063e042e7b2146101d45761009e565b806305a1b4a9146100a3578063149d3ec9146100d85780633e68ea86146100f4578063532561351461012457806358bfa4ab14610142575b600080fd5b6100bd60048036038101906100b8919061116a565b6101f0565b6040516100cf96959493929190611258565b60405180910390f35b6100f260048036038101906100ed919061116a565b6102f1565b005b61010e600480360381019061010991906112c0565b6105a1565b60405161011b91906112ed565b60405180910390f35b61012c6105e0565b60405161013991906114e9565b60405180910390f35b61015c60048036038101906101579190611545565b610997565b005b610166610a46565b6040516101739190611581565b60405180910390f35b610184610a58565b60405161019191906114e9565b60405180910390f35b6101b460048036038101906101af91906116d1565b610cf5565b005b6101be610f41565b6040516101cb91906112ed565b60405180910390f35b6101ee60048036038101906101e9919061116a565b610f67565b005b6001602052816000526040600020818154811061020c57600080fd5b9060005260206000209060070201600091509150508060000154908060010160009054906101000a900473ffffffffffffffffffffffffffffffffffffffff169080600201805461025c90611749565b80601f016020809104026020016040519081016040528092919081815260200182805461028890611749565b80156102d55780601f106102aa576101008083540402835291602001916102d5565b820191906000526020600020905b8154815290600101906020018083116102b857829003601f168201915b5050505050908060030154908060040154908060060154905086565b80600160008473ffffffffffffffffffffffffffffffffffffffff1673ffffffffffffffffffffffffffffffffffffffff1681526020019081526020016000208054905011610375576040517f08c379a000000000000000000000000000000000000000000000000000000000815260040161036c906117c6565b60405180910390fd5b6000600160008473ffffffffffffffffffffffffffffffffffffffff1673ffffffffffffffffffffffffffffffffffffffff16815260200190815260200160002082815481106103c8576103c76117e6565b5b906000526020600020906007020190508060050160003373ffffffffffffffffffffffffffffffffffffffff1673ffffffffffffffffffffffffffffffffffffffff16815260200190815260200160002060009054906101000a900460ff16156104e65780600401600081548092919061044190611844565b919050555060008160050160003373ffffffffffffffffffffffffffffffffffffffff1673ffffffffffffffffffffffffffffffffffffffff16815260200190815260200160002060006101000a81548160ff0219169083151502179055507f762c2616349603ac16eba0de8e6141b79129a07ab63bd99e0a80b3a47171694333848484600401546040516104d9949392919061186d565b60405180910390a161059c565b8060040160008154809291906104fb906118b2565b919050555060018160050160003373ffffffffffffffffffffffffffffffffffffffff1673ffffffffffffffffffffffffffffffffffffffff16815260200190815260200160002060006101000a81548160ff0219169083151502179055507fe8a76fc0f16d11a00d1e93b689b63d76cf60af914dd3d915375dc41d01a0c3c83384848460040154604051610593949392919061186d565b60405180910390a15b505050565b600281815481106105b157600080fd5b906000526020600020016000915054906101000a900473ffffffffffffffffffffffffffffffffffffffff1681565b60606000805b60028054905081101561068e57600160006002838154811061060b5761060a6117e6565b5b9060005260206000200160009054906101000a900473ffffffffffffffffffffffffffffffffffffffff1673ffffffffffffffffffffffffffffffffffffffff1673ffffffffffffffffffffffffffffffffffffffff168152602001908152602001600020805490508261067f91906118fa565b915080806001019150506105e6565b5060008167ffffffffffffffff8111156106ab576106aa6115a6565b5b6040519080825280602002602001820160405280156106e457816020015b6106d161106d565b8152602001906001900390816106c95790505b5090506000805b60028054905081101561098d5760006002828154811061070e5761070d6117e6565b5b9060005260206000200160009054906101000a900473ffffffffffffffffffffffffffffffffffffffff16905060005b600160008373ffffffffffffffffffffffffffffffffffffffff1673ffffffffffffffffffffffffffffffffffffffff1681526020019081526020016000208054905081101561097e576000600160008473ffffffffffffffffffffffffffffffffffffffff1673ffffffffffffffffffffffffffffffffffffffff16815260200190815260200160002082815481106107db576107da6117e6565b5b906000526020600020906007020190506040518060e00160405280826000015481526020018260010160009054906101000a900473ffffffffffffffffffffffffffffffffffffffff1673ffffffffffffffffffffffffffffffffffffffff16815260200182600201805461084f90611749565b80601f016020809104026020016040519081016040528092919081815260200182805461087b90611749565b80156108c85780601f1061089d576101008083540402835291602001916108c8565b820191906000526020600020905b8154815290600101906020018083116108ab57829003601f168201915b5050505050815260200182600301548152602001826004015481526020018260050160003373ffffffffffffffffffffffffffffffffffffffff1673ffffffffffffffffffffffffffffffffffffffff16815260200190815260200160002060009054906101000a900460ff16151581526020018260060154815250868681518110610957576109566117e6565b5b6020026020010181905250848061096d906118b2565b95505050808060010191505061073e565b505080806001019150506106eb565b5081935050505090565b600360009054906101000a900473ffffffffffffffffffffffffffffffffffffffff1673ffffffffffffffffffffffffffffffffffffffff163373ffffffffffffffffffffffffffffffffffffffff1614610a27576040517f08c379a0000000000000000000000000000000000000000000000000000000008152600401610a1e9061197a565b60405180910390fd5b806000806101000a81548161ffff021916908361ffff16021790555050565b60008054906101000a900461ffff1681565b60606000600160003373ffffffffffffffffffffffffffffffffffffffff1673ffffffffffffffffffffffffffffffffffffffff16815260200190815260200160002080549050905060008167ffffffffffffffff811115610abd57610abc6115a6565b5b604051908082528060200260200182016040528015610af657816020015b610ae361106d565b815260200190600190039081610adb5790505b50905060005b82811015610cec576000600160003373ffffffffffffffffffffffffffffffffffffffff1673ffffffffffffffffffffffffffffffffffffffff1681526020019081526020016000208281548110610b5757610b566117e6565b5b906000526020600020906007020190506040518060e00160405280826000015481526020018260010160009054906101000a900473ffffffffffffffffffffffffffffffffffffffff1673ffffffffffffffffffffffffffffffffffffffff168152602001826002018054610bcb90611749565b80601f0160208091040260200160405190810160405280929190818152602001828054610bf790611749565b8015610c445780601f10610c1957610100808354040283529160200191610c44565b820191906000526020600020905b815481529060010190602001808311610c2757829003601f168201915b5050505050815260200182600301548152602001826004015481526020018260050160003373ffffffffffffffffffffffffffffffffffffffff1673ffffffffffffffffffffffffffffffffffffffff16815260200190815260200160002060009054906101000a900460ff16151581526020018260060154815250838381518110610cd357610cd26117e6565b5b6020026020010181905250508080600101915050610afc565b50809250505090565b60008054906101000a900461ffff1661ffff1681511115610d4b576040517f08c379a0000000000000000000000000000000000000000000000000000000008152600401610d4290611a0c565b60405180910390fd5b6000600160003373ffffffffffffffffffffffffffffffffffffffff1673ffffffffffffffffffffffffffffffffffffffff1681526020019081526020016000208054905090506000600160003373ffffffffffffffffffffffffffffffffffffffff1673ffffffffffffffffffffffffffffffffffffffff1681526020019081526020016000206001816001815401808255809150500390600052602060002090600702019050818160000181905550338160010160006101000a81548173ffffffffffffffffffffffffffffffffffffffff021916908373ffffffffffffffffffffffffffffffffffffffff16021790555082816002019081610e509190611bd8565b504281600301819055506000816004018190555060008203610ed0576002339080600181540180825580915050600190039060005260206000200160009091909190916101000a81548173ffffffffffffffffffffffffffffffffffffffff021916908373ffffffffffffffffffffffffffffffffffffffff1602179055505b7f16fd3c13e9d46923e0a8bce11c7b473ec508a72e6c96cd2404b29ce972afc29e81600001548260010160009054906101000a900473ffffffffffffffffffffffffffffffffffffffff16836002018460030154604051610f349493929190611d2e565b60405180910390a1505050565b600360009054906101000a900473ffffffffffffffffffffffffffffffffffffffff1681565b80600160008473ffffffffffffffffffffffffffffffffffffffff1673ffffffffffffffffffffffffffffffffffffffff1681526020019081526020016000208054905011610feb576040517f08c379a0000000000000000000000000000000000000000000000000000000008152600401610fe2906117c6565b60405180910390fd5b6000600160008473ffffffffffffffffffffffffffffffffffffffff1673ffffffffffffffffffffffffffffffffffffffff168152602001908152602001600020828154811061103e5761103d6117e6565b5b90600052602060002090600702019050806006016000815480929190611063906118b2565b9190505550505050565b6040518060e0016040528060008152602001600073ffffffffffffffffffffffffffffffffffffffff168152602001606081526020016000815260200160008152602001600015158152602001600081525090565b6000604051905090565b600080fd5b600080fd5b600073ffffffffffffffffffffffffffffffffffffffff82169050919050565b6000611101826110d6565b9050919050565b611111816110f6565b811461111c57600080fd5b50565b60008135905061112e81611108565b92915050565b6000819050919050565b61114781611134565b811461115257600080fd5b50565b6000813590506111648161113e565b92915050565b60008060408385031215611181576111806110cc565b5b600061118f8582860161111f565b92505060206111a085828601611155565b9150509250929050565b6111b381611134565b82525050565b6111c2816110f6565b82525050565b600081519050919050565b600082825260208201905092915050565b60005b838110156112025780820151818401526020810190506111e7565b60008484015250505050565b6000601f19601f8301169050919050565b600061122a826111c8565b61123481856111d3565b93506112448185602086016111e4565b61124d8161120e565b840191505092915050565b600060c08201905061126d60008301896111aa565b61127a60208301886111b9565b818103604083015261128c818761121f565b905061129b60608301866111aa565b6112a860808301856111aa565b6112b560a08301846111aa565b979650505050505050565b6000602082840312156112d6576112d56110cc565b5b60006112e484828501611155565b91505092915050565b600060208201905061130260008301846111b9565b92915050565b600081519050919050565b600082825260208201905092915050565b6000819050602082019050919050565b61133d81611134565b82525050565b61134c816110f6565b82525050565b600082825260208201905092915050565b600061136e826111c8565b6113788185611352565b93506113888185602086016111e4565b6113918161120e565b840191505092915050565b60008115159050919050565b6113b18161139c565b82525050565b600060e0830160008301516113cf6000860182611334565b5060208301516113e26020860182611343565b50604083015184820360408601526113fa8282611363565b915050606083015161140f6060860182611334565b5060808301516114226080860182611334565b5060a083015161143560a08601826113a8565b5060c083015161144860c0860182611334565b508091505092915050565b600061145f83836113b7565b905092915050565b6000602082019050919050565b600061147f82611308565b6114898185611313565b93508360208202850161149b85611324565b8060005b858110156114d757848403895281516114b88582611453565b94506114c383611467565b925060208a0199505060018101905061149f565b50829750879550505050505092915050565b600060208201905081810360008301526115038184611474565b905092915050565b600061ffff82169050919050565b6115228161150b565b811461152d57600080fd5b50565b60008135905061153f81611519565b92915050565b60006020828403121561155b5761155a6110cc565b5b600061156984828501611530565b91505092915050565b61157b8161150b565b82525050565b60006020820190506115966000830184611572565b92915050565b600080fd5b600080fd5b7f4e487b7100000000000000000000000000000000000000000000000000000000600052604160045260246000fd5b6115de8261120e565b810181811067ffffffffffffffff821117156115fd576115fc6115a6565b5b80604052505050565b60006116106110c2565b905061161c82826115d5565b919050565b600067ffffffffffffffff82111561163c5761163b6115a6565b5b6116458261120e565b9050602081019050919050565b82818337600083830152505050565b600061167461166f84611621565b611606565b9050828152602081018484840111156116905761168f6115a1565b5b61169b848285611652565b509392505050565b600082601f8301126116b8576116b761159c565b5b81356116c8848260208601611661565b91505092915050565b6000602082840312156116e7576116e66110cc565b5b600082013567ffffffffffffffff811115611705576117046110d1565b5b611711848285016116a3565b91505092915050565b7f4e487b7100000000000000000000000000000000000000000000000000000000600052602260045260246000fd5b6000600282049050600182168061176157607f821691505b6020821081036117745761177361171a565b5b50919050565b7f545745455420444f4553204e4f54204558495354000000000000000000000000600082015250565b60006117b06014836111d3565b91506117bb8261177a565b602082019050919050565b600060208201905081810360008301526117df816117a3565b9050919050565b7f4e487b7100000000000000000000000000000000000000000000000000000000600052603260045260246000fd5b7f4e487b7100000000000000000000000000000000000000000000000000000000600052601160045260246000fd5b600061184f82611134565b91506000820361186257611861611815565b5b600182039050919050565b600060808201905061188260008301876111b9565b61188f60208301866111b9565b61189c60408301856111aa565b6118a960608301846111aa565b95945050505050565b60006118bd82611134565b91507fffffffffffffffffffffffffffffffffffffffffffffffffffffffffffffffff82036118ef576118ee611815565b5b600182019050919050565b600061190582611134565b915061191083611134565b925082820190508082111561192857611927611815565b5b92915050565b7f594f5520415245204e4f54204f574e4552000000000000000000000000000000600082015250565b60006119646011836111d3565b915061196f8261192e565b602082019050919050565b6000602082019050818103600083015261199381611957565b9050919050565b7f4d4158205457454554204c454e475448204953204e4f54204d4f52452054484160008201527f4e20323030204348415241435445525300000000000000000000000000000000602082015250565b60006119f66030836111d3565b9150611a018261199a565b604082019050919050565b60006020820190508181036000830152611a25816119e9565b9050919050565b60008190508160005260206000209050919050565b60006020601f8301049050919050565b600082821b905092915050565b600060088302611a8e7fffffffffffffffffffffffffffffffffffffffffffffffffffffffffffffffff82611a51565b611a988683611a51565b95508019841693508086168417925050509392505050565b6000819050919050565b6000611ad5611ad0611acb84611134565b611ab0565b611134565b9050919050565b6000819050919050565b611aef83611aba565b611b03611afb82611adc565b848454611a5e565b825550505050565b600090565b611b18611b0b565b611b23818484611ae6565b505050565b5b81811015611b4757611b3c600082611b10565b600181019050611b29565b5050565b601f821115611b8c57611b5d81611a2c565b611b6684611a41565b81016020851015611b75578190505b611b89611b8185611a41565b830182611b28565b50505b505050565b600082821c905092915050565b6000611baf60001984600802611b91565b1980831691505092915050565b6000611bc88383611b9e565b9150826002028217905092915050565b611be1826111c8565b67ffffffffffffffff811115611bfa57611bf96115a6565b5b611c048254611749565b611c0f828285611b4b565b600060209050601f831160018114611c425760008415611c30578287015190505b611c3a8582611bbc565b865550611ca2565b601f198416611c5086611a2c565b60005b82811015611c7857848901518255600182019150602085019450602081019050611c53565b86831015611c955784890151611c91601f891682611b9e565b8355505b6001600288020188555050505b505050505050565b60008154611cb781611749565b611cc181866111d3565b94506001821660008114611cdc5760018114611cf257611d25565b60ff198316865281151560200286019350611d25565b611cfb85611a2c565b60005b83811015611d1d57815481890152600182019150602081019050611cfe565b808801955050505b50505092915050565b6000608082019050611d4360008301876111aa565b611d5060208301866111b9565b8181036040830152611d628185611caa565b9050611d7160608301846111aa565b9594505050505056fea2646970667358221220f82627fecf6b363ef2315de480ec708bd6e8c8158bc69dfc5a010feb75d0f3c364736f6c63430008180033",
  "linkReferences": {},
  "deployedLinkReferences": {}
}