{
  "_format": "hh-sol-artifact-1",
  "contractName": "TwitterContract",
  "sourceName": "contracts/TwitterContract.sol",
  "abi": [
    {
      "inputs": [],
      "stateMutability": "nonpayable",
      "type": "constructor"
    },
    {
      "anonymous": false,
      "inputs": [
        {
          "indexed": false,
          "internalType": "uint256",
          "name": "tweetId",
          "type": "uint256"
        },
        {
          "indexed": false,
          "internalType": "uint256",
          "name": "commentId",
          "type": "uint256"
        },
        {
          "indexed": false,
          "internalType": "address",
          "name": "commenter",
          "type": "address"
        },
        {
          "indexed": false,
          "internalType": "string",
          "name": "content",
          "type": "string"
        },
        {
          "indexed": false,
          "internalType": "uint256",
          "name": "timestamp",
          "type": "uint256"
        }
      ],
      "name": "CommentCreated",
      "type": "event"
    },
    {
      "anonymous": false,
      "inputs": [
        {
          "indexed": false,
          "internalType": "uint256",
          "name": "id",
          "type": "uint256"
        },
        {
          "indexed": false,
          "internalType": "address",
          "name": "author",
          "type": "address"
        },
        {
          "indexed": false,
          "internalType": "string",
          "name": "content",
          "type": "string"
        },
        {
          "indexed": false,
          "internalType": "uint256",
          "name": "timestamp",
          "type": "uint256"
        }
      ],
      "name": "TweetCreated",
      "type": "event"
    },
    {
      "anonymous": false,
      "inputs": [
        {
          "indexed": false,
          "internalType": "address",
          "name": "liker",
          "type": "address"
        },
        {
          "indexed": false,
          "internalType": "address",
          "name": "tweetAuthor",
          "type": "address"
        },
        {
          "indexed": false,
          "internalType": "uint256",
          "name": "tweetId",
          "type": "uint256"
        },
        {
          "indexed": false,
          "internalType": "uint256",
          "name": "newLikeCount",
          "type": "uint256"
        }
      ],
      "name": "TweetLiked",
      "type": "event"
    },
    {
      "anonymous": false,
      "inputs": [
        {
          "indexed": false,
          "internalType": "address",
          "name": "retweeter",
          "type": "address"
        },
        {
          "indexed": false,
          "internalType": "address",
          "name": "tweetAuthor",
          "type": "address"
        },
        {
          "indexed": false,
          "internalType": "uint256",
          "name": "tweetId",
          "type": "uint256"
        },
        {
          "indexed": false,
          "internalType": "uint256",
          "name": "newRetweetCount",
          "type": "uint256"
        }
      ],
      "name": "TweetRetweet",
      "type": "event"
    },
    {
      "anonymous": false,
      "inputs": [
        {
          "indexed": false,
          "internalType": "address",
          "name": "unliker",
          "type": "address"
        },
        {
          "indexed": false,
          "internalType": "address",
          "name": "tweetAuthor",
          "type": "address"
        },
        {
          "indexed": false,
          "internalType": "uint256",
          "name": "tweetId",
          "type": "uint256"
        },
        {
          "indexed": false,
          "internalType": "uint256",
          "name": "newLikeCount",
          "type": "uint256"
        }
      ],
      "name": "TweetUnliked",
      "type": "event"
    },
    {
      "inputs": [],
      "name": "MAX_TWEET_LENGTH",
      "outputs": [
        {
          "internalType": "uint16",
          "name": "",
          "type": "uint16"
        }
      ],
      "stateMutability": "view",
      "type": "function"
    },
    {
      "inputs": [
        {
          "internalType": "address",
          "name": "author",
          "type": "address"
        },
        {
          "internalType": "uint256",
          "name": "id",
          "type": "uint256"
        },
        {
          "internalType": "string",
          "name": "_comment",
          "type": "string"
        }
      ],
      "name": "addComment",
      "outputs": [],
      "stateMutability": "nonpayable",
      "type": "function"
    },
    {
      "inputs": [
        {
          "internalType": "uint16",
          "name": "newTweetLength",
          "type": "uint16"
        }
      ],
      "name": "changeTweetLength",
      "outputs": [],
      "stateMutability": "nonpayable",
      "type": "function"
    },
    {
      "inputs": [
        {
          "internalType": "string",
          "name": "_tweet",
          "type": "string"
        }
      ],
      "name": "createTweet",
      "outputs": [],
      "stateMutability": "nonpayable",
      "type": "function"
    },
    {
      "inputs": [],
      "name": "getAllTweets",
      "outputs": [
        {
          "components": [
            {
              "internalType": "uint256",
              "name": "id",
              "type": "uint256"
            },
            {
              "internalType": "address",
              "name": "author",
              "type": "address"
            },
            {
              "internalType": "string",
              "name": "content",
              "type": "string"
            },
            {
              "internalType": "uint256",
              "name": "timestamp",
              "type": "uint256"
            },
            {
              "internalType": "uint256",
              "name": "likes",
              "type": "uint256"
            },
            {
              "internalType": "bool",
              "name": "likedBySender",
              "type": "bool"
            },
            {
              "internalType": "uint256",
              "name": "retweets",
              "type": "uint256"
            },
            {
              "internalType": "uint256",
              "name": "commentCount",
              "type": "uint256"
            }
          ],
          "internalType": "struct TwitterContract.PublicTweet[]",
          "name": "",
          "type": "tuple[]"
        }
      ],
      "stateMutability": "view",
      "type": "function"
    },
    {
      "inputs": [
        {
          "internalType": "address",
          "name": "author",
          "type": "address"
        },
        {
          "internalType": "uint256",
          "name": "id",
          "type": "uint256"
        }
      ],
      "name": "getComments",
      "outputs": [
        {
          "components": [
            {
              "internalType": "uint256",
              "name": "id",
              "type": "uint256"
            },
            {
              "internalType": "address",
              "name": "commenter",
              "type": "address"
            },
            {
              "internalType": "string",
              "name": "content",
              "type": "string"
            },
            {
              "internalType": "uint256",
              "name": "timestamp",
              "type": "uint256"
            }
          ],
          "internalType": "struct TwitterContract.Comment[]",
          "name": "",
          "type": "tuple[]"
        }
      ],
      "stateMutability": "view",
      "type": "function"
    },
    {
      "inputs": [],
      "name": "getUserTweets",
      "outputs": [
        {
          "components": [
            {
              "internalType": "uint256",
              "name": "id",
              "type": "uint256"
            },
            {
              "internalType": "address",
              "name": "author",
              "type": "address"
            },
            {
              "internalType": "string",
              "name": "content",
              "type": "string"
            },
            {
              "internalType": "uint256",
              "name": "timestamp",
              "type": "uint256"
            },
            {
              "internalType": "uint256",
              "name": "likes",
              "type": "uint256"
            },
            {
              "internalType": "bool",
              "name": "likedBySender",
              "type": "bool"
            },
            {
              "internalType": "uint256",
              "name": "retweets",
              "type": "uint256"
            },
            {
              "internalType": "uint256",
              "name": "commentCount",
              "type": "uint256"
            }
          ],
          "internalType": "struct TwitterContract.PublicTweet[]",
          "name": "",
          "type": "tuple[]"
        }
      ],
      "stateMutability": "view",
      "type": "function"
    },
    {
      "inputs": [],
      "name": "owner",
      "outputs": [
        {
          "internalType": "address",
          "name": "",
          "type": "address"
        }
      ],
      "stateMutability": "view",
      "type": "function"
    },
    {
      "inputs": [
        {
          "internalType": "address",
          "name": "author",
          "type": "address"
        },
        {
          "internalType": "uint256",
          "name": "id",
          "type": "uint256"
        }
      ],
      "name": "retweet",
      "outputs": [],
      "stateMutability": "nonpayable",
      "type": "function"
    },
    {
      "inputs": [
        {
          "internalType": "address",
          "name": "author",
          "type": "address"
        },
        {
          "internalType": "uint256",
          "name": "id",
          "type": "uint256"
        }
      ],
      "name": "toggelLikeTweet",
      "outputs": [],
      "stateMutability": "nonpayable",
      "type": "function"
    },
    {
      "inputs": [
        {
          "internalType": "uint256",
          "name": "",
          "type": "uint256"
        }
      ],
      "name": "tweetAuthors",
      "outputs": [
        {
          "internalType": "address",
          "name": "",
          "type": "address"
        }
      ],
      "stateMutability": "view",
      "type": "function"
    },
    {
      "inputs": [
        {
          "internalType": "address",
          "name": "",
          "type": "address"
        },
        {
          "internalType": "uint256",
          "name": "",
          "type": "uint256"
        }
      ],
      "name": "tweets",
      "outputs": [
        {
          "internalType": "uint256",
          "name": "id",
          "type": "uint256"
        },
        {
          "internalType": "address",
          "name": "author",
          "type": "address"
        },
        {
          "internalType": "string",
          "name": "content",
          "type": "string"
        },
        {
          "internalType": "uint256",
          "name": "timestamp",
          "type": "uint256"
        },
        {
          "internalType": "uint256",
          "name": "likes",
          "type": "uint256"
        },
        {
          "internalType": "uint256",
          "name": "retweets",
          "type": "uint256"
        },
        {
          "internalType": "uint256",
          "name": "commentCount",
          "type": "uint256"
        }
      ],
      "stateMutability": "view",
      "type": "function"
    }
  ],
  "bytecode": "0x608060405260c86000806101000a81548161ffff021916908361ffff16021790555034801561002d57600080fd5b5033600360006101000a81548173ffffffffffffffffffffffffffffffffffffffff021916908373ffffffffffffffffffffffffffffffffffffffff1602179055506125588061007e6000396000f3fe608060405234801561001057600080fd5b50600436106100b45760003560e01c8063731903ff11610071578063731903ff146101935780637c9cd2bc146101b15780638da5cb5b146101cd578063aae741c4146101eb578063e042e7b214610207578063fdbe1d6d14610223576100b4565b806305a1b4a9146100b9578063149d3ec9146100ef5780633e68ea861461010b578063532561351461013b57806358bfa4ab146101595780636eb1079714610175575b600080fd5b6100d360048036038101906100ce919061164e565b610253565b6040516100e6979695949392919061173c565b60405180910390f35b6101096004803603810190610104919061164e565b61035a565b005b610125600480360381019061012091906117b2565b61060a565b60405161013291906117df565b60405180910390f35b610143610649565b60405161015091906119ef565b60405180910390f35b610173600480360381019061016e9190611a4b565b610a0b565b005b61017d610aba565b60405161018a9190611a87565b60405180910390f35b61019b610acc565b6040516101a891906119ef565b60405180910390f35b6101cb60048036038101906101c69190611bd7565b610d74565b005b6101d5610fc0565b6040516101e291906117df565b60405180910390f35b61020560048036038101906102009190611c20565b610fe6565b005b610221600480360381019061021c919061164e565b6111b4565b005b61023d6004803603810190610238919061164e565b6112fb565b60405161024a9190611db4565b60405180910390f35b6001602052816000526040600020818154811061026f57600080fd5b9060005260206000209060090201600091509150508060000154908060010160009054906101000a900473ffffffffffffffffffffffffffffffffffffffff16908060020180546102bf90611e05565b80601f01602080910402602001604051908101604052809291908181526020018280546102eb90611e05565b80156103385780601f1061030d57610100808354040283529160200191610338565b820191906000526020600020905b81548152906001019060200180831161031b57829003601f168201915b5050505050908060030154908060040154908060060154908060070154905087565b80600160008473ffffffffffffffffffffffffffffffffffffffff1673ffffffffffffffffffffffffffffffffffffffff16815260200190815260200160002080549050116103de576040517f08c379a00000000000000000000000000000000000000000000000000000000081526004016103d590611e82565b60405180910390fd5b6000600160008473ffffffffffffffffffffffffffffffffffffffff1673ffffffffffffffffffffffffffffffffffffffff168152602001908152602001600020828154811061043157610430611ea2565b5b906000526020600020906009020190508060050160003373ffffffffffffffffffffffffffffffffffffffff1673ffffffffffffffffffffffffffffffffffffffff16815260200190815260200160002060009054906101000a900460ff161561054f578060040160008154809291906104aa90611f00565b919050555060008160050160003373ffffffffffffffffffffffffffffffffffffffff1673ffffffffffffffffffffffffffffffffffffffff16815260200190815260200160002060006101000a81548160ff0219169083151502179055507f762c2616349603ac16eba0de8e6141b79129a07ab63bd99e0a80b3a47171694333848484600401546040516105429493929190611f29565b60405180910390a1610605565b80600401600081548092919061056490611f6e565b919050555060018160050160003373ffffffffffffffffffffffffffffffffffffffff1673ffffffffffffffffffffffffffffffffffffffff16815260200190815260200160002060006101000a81548160ff0219169083151502179055507fe8a76fc0f16d11a00d1e93b689b63d76cf60af914dd3d915375dc41d01a0c3c833848484600401546040516105fc9493929190611f29565b60405180910390a15b505050565b6002818154811061061a57600080fd5b906000526020600020016000915054906101000a900473ffffffffffffffffffffffffffffffffffffffff1681565b60606000805b6002805490508110156106f757600160006002838154811061067457610673611ea2565b5b9060005260206000200160009054906101000a900473ffffffffffffffffffffffffffffffffffffffff1673ffffffffffffffffffffffffffffffffffffffff1673ffffffffffffffffffffffffffffffffffffffff16815260200190815260200160002080549050826106e89190611fb6565b9150808060010191505061064f565b5060008167ffffffffffffffff81111561071457610713611aac565b5b60405190808252806020026020018201604052801561074d57816020015b61073a61150b565b8152602001906001900390816107325790505b5090506000805b600280549050811015610a015760006002828154811061077757610776611ea2565b5b9060005260206000200160009054906101000a900473ffffffffffffffffffffffffffffffffffffffff16905060005b600160008373ffffffffffffffffffffffffffffffffffffffff1673ffffffffffffffffffffffffffffffffffffffff168152602001908152602001600020805490508110156109f2576000600160008473ffffffffffffffffffffffffffffffffffffffff1673ffffffffffffffffffffffffffffffffffffffff168152602001908152602001600020828154811061084457610843611ea2565b5b90600052602060002090600902019050604051806101000160405280826000015481526020018260010160009054906101000a900473ffffffffffffffffffffffffffffffffffffffff1673ffffffffffffffffffffffffffffffffffffffff1681526020018260020180546108b990611e05565b80601f01602080910402602001604051908101604052809291908181526020018280546108e590611e05565b80156109325780601f1061090757610100808354040283529160200191610932565b820191906000526020600020905b81548152906001019060200180831161091557829003601f168201915b5050505050815260200182600301548152602001826004015481526020018260050160003373ffffffffffffffffffffffffffffffffffffffff1673ffffffffffffffffffffffffffffffffffffffff16815260200190815260200160002060009054906101000a900460ff16151581526020018260060154815260200182600701548152508686815181106109cb576109ca611ea2565b5b602002602001018190525084806109e190611f6e565b9550505080806001019150506107a7565b50508080600101915050610754565b5081935050505090565b600360009054906101000a900473ffffffffffffffffffffffffffffffffffffffff1673ffffffffffffffffffffffffffffffffffffffff163373ffffffffffffffffffffffffffffffffffffffff1614610a9b576040517f08c379a0000000000000000000000000000000000000000000000000000000008152600401610a9290612036565b60405180910390fd5b806000806101000a81548161ffff021916908361ffff16021790555050565b60008054906101000a900461ffff1681565b60606000600160003373ffffffffffffffffffffffffffffffffffffffff1673ffffffffffffffffffffffffffffffffffffffff16815260200190815260200160002080549050905060008167ffffffffffffffff811115610b3157610b30611aac565b5b604051908082528060200260200182016040528015610b6a57816020015b610b5761150b565b815260200190600190039081610b4f5790505b50905060005b82811015610d6b576000600160003373ffffffffffffffffffffffffffffffffffffffff1673ffffffffffffffffffffffffffffffffffffffff1681526020019081526020016000208281548110610bcb57610bca611ea2565b5b90600052602060002090600902019050604051806101000160405280826000015481526020018260010160009054906101000a900473ffffffffffffffffffffffffffffffffffffffff1673ffffffffffffffffffffffffffffffffffffffff168152602001826002018054610c4090611e05565b80601f0160208091040260200160405190810160405280929190818152602001828054610c6c90611e05565b8015610cb95780601f10610c8e57610100808354040283529160200191610cb9565b820191906000526020600020905b815481529060010190602001808311610c9c57829003601f168201915b5050505050815260200182600301548152602001826004015481526020018260050160003373ffffffffffffffffffffffffffffffffffffffff1673ffffffffffffffffffffffffffffffffffffffff16815260200190815260200160002060009054906101000a900460ff1615158152602001826006015481526020018260070154815250838381518110610d5257610d51611ea2565b5b6020026020010181905250508080600101915050610b70565b50809250505090565b60008054906101000a900461ffff1661ffff1681511115610dca576040517f08c379a0000000000000000000000000000000000000000000000000000000008152600401610dc1906120c8565b60405180910390fd5b6000600160003373ffffffffffffffffffffffffffffffffffffffff1673ffffffffffffffffffffffffffffffffffffffff1681526020019081526020016000208054905090506000600160003373ffffffffffffffffffffffffffffffffffffffff1673ffffffffffffffffffffffffffffffffffffffff1681526020019081526020016000206001816001815401808255809150500390600052602060002090600902019050818160000181905550338160010160006101000a81548173ffffffffffffffffffffffffffffffffffffffff021916908373ffffffffffffffffffffffffffffffffffffffff16021790555082816002019081610ecf9190612294565b504281600301819055506000816004018190555060008203610f4f576002339080600181540180825580915050600190039060005260206000200160009091909190916101000a81548173ffffffffffffffffffffffffffffffffffffffff021916908373ffffffffffffffffffffffffffffffffffffffff1602179055505b7f16fd3c13e9d46923e0a8bce11c7b473ec508a72e6c96cd2404b29ce972afc29e81600001548260010160009054906101000a900473ffffffffffffffffffffffffffffffffffffffff16836002018460030154604051610fb394939291906123ea565b60405180910390a1505050565b600360009054906101000a900473ffffffffffffffffffffffffffffffffffffffff1681565b60008054906101000a900461ffff1661ffff168151111561103c576040517f08c379a0000000000000000000000000000000000000000000000000000000008152600401611033906124a8565b60405180910390fd5b6000600160008573ffffffffffffffffffffffffffffffffffffffff1673ffffffffffffffffffffffffffffffffffffffff168152602001908152602001600020838154811061108f5761108e611ea2565b5b9060005260206000209060090201905060008160070154905060008260080160008381526020019081526020016000209050818160000181905550338160010160006101000a81548173ffffffffffffffffffffffffffffffffffffffff021916908373ffffffffffffffffffffffffffffffffffffffff1602179055508381600201908161111e9190612294565b5042816003018190555082600701600081548092919061113d90611f6e565b91905055507f421f804a0b21938816743b4f5bf6076d33137a72a0eaebd93abd7e2fd7ac207185838360010160009054906101000a900473ffffffffffffffffffffffffffffffffffffffff168460020185600301546040516111a49594939291906124c8565b60405180910390a1505050505050565b80600160008473ffffffffffffffffffffffffffffffffffffffff1673ffffffffffffffffffffffffffffffffffffffff1681526020019081526020016000208054905011611238576040517f08c379a000000000000000000000000000000000000000000000000000000000815260040161122f90611e82565b60405180910390fd5b6000600160008473ffffffffffffffffffffffffffffffffffffffff1673ffffffffffffffffffffffffffffffffffffffff168152602001908152602001600020828154811061128b5761128a611ea2565b5b906000526020600020906009020190508060060160008154809291906112b090611f6e565b91905055507fd15519e95ca7b49b770dfa399952fc55502df798955f6614f2efa4486b69e4c433848484600601546040516112ee9493929190611f29565b60405180910390a1505050565b60606000600160008573ffffffffffffffffffffffffffffffffffffffff1673ffffffffffffffffffffffffffffffffffffffff16815260200190815260200160002083815481106113505761134f611ea2565b5b906000526020600020906009020190506000816007015467ffffffffffffffff8111156113805761137f611aac565b5b6040519080825280602002602001820160405280156113b957816020015b6113a6611568565b81526020019060019003908161139e5790505b50905060005b82600701548110156114ff57600083600801600083815260200190815260200160002090506040518060800160405280826000015481526020018260010160009054906101000a900473ffffffffffffffffffffffffffffffffffffffff1673ffffffffffffffffffffffffffffffffffffffff16815260200182600201805461144890611e05565b80601f016020809104026020016040519081016040528092919081815260200182805461147490611e05565b80156114c15780601f10611496576101008083540402835291602001916114c1565b820191906000526020600020905b8154815290600101906020018083116114a457829003601f168201915b5050505050815260200182600301548152508383815181106114e6576114e5611ea2565b5b60200260200101819052505080806001019150506113bf565b50809250505092915050565b60405180610100016040528060008152602001600073ffffffffffffffffffffffffffffffffffffffff16815260200160608152602001600081526020016000815260200160001515815260200160008152602001600081525090565b604051806080016040528060008152602001600073ffffffffffffffffffffffffffffffffffffffff16815260200160608152602001600081525090565b6000604051905090565b600080fd5b600080fd5b600073ffffffffffffffffffffffffffffffffffffffff82169050919050565b60006115e5826115ba565b9050919050565b6115f5816115da565b811461160057600080fd5b50565b600081359050611612816115ec565b92915050565b6000819050919050565b61162b81611618565b811461163657600080fd5b50565b60008135905061164881611622565b92915050565b60008060408385031215611665576116646115b0565b5b600061167385828601611603565b925050602061168485828601611639565b9150509250929050565b61169781611618565b82525050565b6116a6816115da565b82525050565b600081519050919050565b600082825260208201905092915050565b60005b838110156116e65780820151818401526020810190506116cb565b60008484015250505050565b6000601f19601f8301169050919050565b600061170e826116ac565b61171881856116b7565b93506117288185602086016116c8565b611731816116f2565b840191505092915050565b600060e082019050611751600083018a61168e565b61175e602083018961169d565b81810360408301526117708188611703565b905061177f606083018761168e565b61178c608083018661168e565b61179960a083018561168e565b6117a660c083018461168e565b98975050505050505050565b6000602082840312156117c8576117c76115b0565b5b60006117d684828501611639565b91505092915050565b60006020820190506117f4600083018461169d565b92915050565b600081519050919050565b600082825260208201905092915050565b6000819050602082019050919050565b61182f81611618565b82525050565b61183e816115da565b82525050565b600082825260208201905092915050565b6000611860826116ac565b61186a8185611844565b935061187a8185602086016116c8565b611883816116f2565b840191505092915050565b60008115159050919050565b6118a38161188e565b82525050565b6000610100830160008301516118c26000860182611826565b5060208301516118d56020860182611835565b50604083015184820360408601526118ed8282611855565b91505060608301516119026060860182611826565b5060808301516119156080860182611826565b5060a083015161192860a086018261189a565b5060c083015161193b60c0860182611826565b5060e083015161194e60e0860182611826565b508091505092915050565b600061196583836118a9565b905092915050565b6000602082019050919050565b6000611985826117fa565b61198f8185611805565b9350836020820285016119a185611816565b8060005b858110156119dd57848403895281516119be8582611959565b94506119c98361196d565b925060208a019950506001810190506119a5565b50829750879550505050505092915050565b60006020820190508181036000830152611a09818461197a565b905092915050565b600061ffff82169050919050565b611a2881611a11565b8114611a3357600080fd5b50565b600081359050611a4581611a1f565b92915050565b600060208284031215611a6157611a606115b0565b5b6000611a6f84828501611a36565b91505092915050565b611a8181611a11565b82525050565b6000602082019050611a9c6000830184611a78565b92915050565b600080fd5b600080fd5b7f4e487b7100000000000000000000000000000000000000000000000000000000600052604160045260246000fd5b611ae4826116f2565b810181811067ffffffffffffffff82111715611b0357611b02611aac565b5b80604052505050565b6000611b166115a6565b9050611b228282611adb565b919050565b600067ffffffffffffffff821115611b4257611b41611aac565b5b611b4b826116f2565b9050602081019050919050565b82818337600083830152505050565b6000611b7a611b7584611b27565b611b0c565b905082815260208101848484011115611b9657611b95611aa7565b5b611ba1848285611b58565b509392505050565b600082601f830112611bbe57611bbd611aa2565b5b8135611bce848260208601611b67565b91505092915050565b600060208284031215611bed57611bec6115b0565b5b600082013567ffffffffffffffff811115611c0b57611c0a6115b5565b5b611c1784828501611ba9565b91505092915050565b600080600060608486031215611c3957611c386115b0565b5b6000611c4786828701611603565b9350506020611c5886828701611639565b925050604084013567ffffffffffffffff811115611c7957611c786115b5565b5b611c8586828701611ba9565b9150509250925092565b600081519050919050565b600082825260208201905092915050565b6000819050602082019050919050565b6000608083016000830151611cd36000860182611826565b506020830151611ce66020860182611835565b5060408301518482036040860152611cfe8282611855565b9150506060830151611d136060860182611826565b508091505092915050565b6000611d2a8383611cbb565b905092915050565b6000602082019050919050565b6000611d4a82611c8f565b611d548185611c9a565b935083602082028501611d6685611cab565b8060005b85811015611da25784840389528151611d838582611d1e565b9450611d8e83611d32565b925060208a01995050600181019050611d6a565b50829750879550505050505092915050565b60006020820190508181036000830152611dce8184611d3f565b905092915050565b7f4e487b7100000000000000000000000000000000000000000000000000000000600052602260045260246000fd5b60006002820490506001821680611e1d57607f821691505b602082108103611e3057611e2f611dd6565b5b50919050565b7f545745455420444f4553204e4f54204558495354000000000000000000000000600082015250565b6000611e6c6014836116b7565b9150611e7782611e36565b602082019050919050565b60006020820190508181036000830152611e9b81611e5f565b9050919050565b7f4e487b7100000000000000000000000000000000000000000000000000000000600052603260045260246000fd5b7f4e487b7100000000000000000000000000000000000000000000000000000000600052601160045260246000fd5b6000611f0b82611618565b915060008203611f1e57611f1d611ed1565b5b600182039050919050565b6000608082019050611f3e600083018761169d565b611f4b602083018661169d565b611f58604083018561168e565b611f65606083018461168e565b95945050505050565b6000611f7982611618565b91507fffffffffffffffffffffffffffffffffffffffffffffffffffffffffffffffff8203611fab57611faa611ed1565b5b600182019050919050565b6000611fc182611618565b9150611fcc83611618565b9250828201905080821115611fe457611fe3611ed1565b5b92915050565b7f594f5520415245204e4f54204f574e4552000000000000000000000000000000600082015250565b60006120206011836116b7565b915061202b82611fea565b602082019050919050565b6000602082019050818103600083015261204f81612013565b9050919050565b7f4d4158205457454554204c454e475448204953204e4f54204d4f52452054484160008201527f4e20323030204348415241435445525300000000000000000000000000000000602082015250565b60006120b26030836116b7565b91506120bd82612056565b604082019050919050565b600060208201905081810360008301526120e1816120a5565b9050919050565b60008190508160005260206000209050919050565b60006020601f8301049050919050565b600082821b905092915050565b60006008830261214a7fffffffffffffffffffffffffffffffffffffffffffffffffffffffffffffffff8261210d565b612154868361210d565b95508019841693508086168417925050509392505050565b6000819050919050565b600061219161218c61218784611618565b61216c565b611618565b9050919050565b6000819050919050565b6121ab83612176565b6121bf6121b782612198565b84845461211a565b825550505050565b600090565b6121d46121c7565b6121df8184846121a2565b505050565b5b81811015612203576121f86000826121cc565b6001810190506121e5565b5050565b601f82111561224857612219816120e8565b612222846120fd565b81016020851015612231578190505b61224561223d856120fd565b8301826121e4565b50505b505050565b600082821c905092915050565b600061226b6000198460080261224d565b1980831691505092915050565b6000612284838361225a565b9150826002028217905092915050565b61229d826116ac565b67ffffffffffffffff8111156122b6576122b5611aac565b5b6122c08254611e05565b6122cb828285612207565b600060209050601f8311600181146122fe57600084156122ec578287015190505b6122f68582612278565b86555061235e565b601f19841661230c866120e8565b60005b828110156123345784890151825560018201915060208501945060208101905061230f565b86831015612351578489015161234d601f89168261225a565b8355505b6001600288020188555050505b505050505050565b6000815461237381611e05565b61237d81866116b7565b9450600182166000811461239857600181146123ae576123e1565b60ff1983168652811515602002860193506123e1565b6123b7856120e8565b60005b838110156123d9578154818901526001820191506020810190506123ba565b808801955050505b50505092915050565b60006080820190506123ff600083018761168e565b61240c602083018661169d565b818103604083015261241e8185612366565b905061242d606083018461168e565b95945050505050565b7f4d415820434f4d4d454e54204c454e475448204953204e4f54204d4f5245205460008201527f48414e2032303020434841524143544552530000000000000000000000000000602082015250565b60006124926032836116b7565b915061249d82612436565b604082019050919050565b600060208201905081810360008301526124c181612485565b9050919050565b600060a0820190506124dd600083018861168e565b6124ea602083018761168e565b6124f7604083018661169d565b81810360608301526125098185612366565b9050612518608083018461168e565b969550505050505056fea2646970667358221220a3e44a19de89dce7153348bafbe46ce822c4e02a554ff90d4adf0885ae1f588364736f6c63430008180033",
  "linkReferences": {},
  "deployedLinkReferences": {}
}